:0200000039299C
:10000600710DF80DF90D7408F8027508031C750FCB
:10001600F902F00DF10D0F30FC00710DF80DF90D20
:100026007408701C1C28F8027508031C750FF90269
:100036002128F80775080318750FF907F00DF10D5B
:10004600FC0B102870182D287408F807750803187B
:08005600750FF9070000080016
:0E005E008312031323088A0022088200080080
:10006C0083120313081F6828A00A0319A10A06307B
:10007C00FB001330FC00AD30FD00FD0B4328FC0BE6
:10008C004328FB0B43280000000080301F3AF0008F
:10009C00803021067002031D55282008403C0318AF
:1000AC005B284030A0001F30A1008030F000803071
:1000BC0021067002031D64282008003C03186728E1
:1000CC0008123628881F89280130A002031CA103BE
:1000DC000630FB001330FC00AD30FD00FD0B742826
:1000EC00FC0B7428FB0B74280000000080302106E8
:1000FC00F00080307002031D8528003020020318A8
:08010C00882808166828080085
:100114002F208A110A128000840AA20A0319A30A52
:08012400F003031D8A28080006
:10012C003F3083120313B0000030B1000630B20030
:10013C000030B3005B30B4000030B5004F30B60077
:10014C000030B7006630B8000030B9006D30BA002E
:10015C000030BB007D30BC000030BD000730BE005D
:10016C000030BF007F30C0000030C1006730C200DB
:10017C000030C3002E08F0002F08F100F00DF10D37
:10018C0070107008303E84000008F000840A0008EB
:04019C00F100080066
:1001A000831203137408003A031DDF287508003A10
:1001B000031DDF28FF30F0007F30F10008008312BC
:1001C0000313FD01F901F8017108700403190034EB
:1001D00071087506FA00FA1BFD09FB01F51FF528E9
:1001E000F409F509F40A0319F50AF11FFC28F009CE
:1001F000F109F00A0319F10A71087504FA00FA1BF3
:10020000112903207B182429FD1F0034F009F1096E
:10021000F00A0319F10AF809F909F80A0319F90AA9
:100220000034F51F2029F11B1C297108F900700802
:10023000F800F101F0010429F101F001F00A0034A5
:10024000F109F009FB0A0129F80A0319F90A7408EF
:100250007802031D042975087902031D0429F90198
:10026000F801F00A0319F10AF11F04290000FF3414
:02027000080084
:1002720083120313A001A101073083169C00C03032
:10028200880087018312881008118811081236200D
:10029200E830F4000330F5002008F0002108F100F6
:1002A200D0207008AC007108AD00E830F4000330D3
:1002B200F5002008F0002108F100D0207808F000B5
:1002C2007908F100E830F4000330F500D02070081E
:1002D2002C02F0007108031C013E2D02F10070088F
:1002E200AA007108AB007008AE007108AF0096203A
:1002F2007008870008141A30FC00F830FD00FD0B6E
:100302008029FC0B802900000810E830F40003303B
:10031200F5002008F0002108F100D0207808F00054
:100322007908F1007008A4007108A5006430F40097
:100332000030F500D0207008AC007108AD006430C8
:10034200F4000030F5002408F0002508F100D02068
:100352007808F0007908F1006430F4000030F5000C
:10036200D02070082C02F0007108031C013E2D02FF
:10037200F1007008A4007108A5007008AE007108B1
:10038200AF0096207008870088141A30FC00F830FD
:10039200FD00FD0BCA29FC0BCA290000881064303D
:1003A200F4000030F5002008F0002108F100D02010
:1003B2007808F0007908F1007008A6007108A7001B
:1003C2000A30F4000030F500D0207008AC0071084B
:1003D200AD000A30F4000030F5002608F0002708CE
:1003E200F100D0207808F0007908F1000A30F4001A
:1003F2000030F500D02070082C02F0007108031CB8
:10040200013E2D02F1007008A6007108A7007008D5
:10041200AE007108AF0096207008870008151A30E8
:10042200FC00F830FD00FD0B142AFC0B142A00001E
:1004320008110A30F4000030F5002008F00021080D
:10044200F100D0207808F0007908F1007008A800C7
:100452007108A9007008AE007108AF0096207008FC
:10046200870088151A30FC00F830FD00FD0B372A92
:0C047200FC0B372A0000881148293E2AA4
:02400E00492F38
:00000001FF
