:02000000452990
:10000600710DF80DF90D7408F8027508031C750FCB
:10001600F902F00DF10D0F30FC00710DF80DF90D20
:100026007408701C1C28F8027508031C750FF90269
:100036002128F80775080318750FF907F00DF10D5B
:10004600FC0B102870182D287408F807750803187B
:08005600750FF9070000080016
:0E005E008312031323088A0022088200080080
:10006C0083120313081F6728A00A0319A10A03307F
:10007C00FB008A30FC005530FD00FD0B4328FC0BC7
:10008C004328FB0B4328000000008030F000803038
:10009C0021067002031D54282008503C03185A28CE
:1000AC005030A0000030A1008030F00080302106DC
:1000BC007002031D63282008003C0318662887176C
:1000CC003628881F95280130A002031CA103033099
:1000DC00FB008A30FC005530FD00FD0B7328FC0B37
:1000EC007328FB0B73280000000080302106F00001
:1000FC0080307002031D84280130200203188828E8
:10010C00A001A10180302106F00080307002031D97
:10011C0091280130200203189428871367280800BF
:10012C002F208A110A128000840AA20A0319A30A3A
:08013C00F003031D96280800E2
:100144003F3083120313B0000030B1000630B20018
:100154000030B3005B30B4000030B5004F30B6005F
:100164000030B7006630B8000030B9006D30BA0016
:100174000030BB007D30BC000030BD000730BE0045
:100184000030BF007F30C0000030C1006730C200C3
:100194000030C3002E08F0002F08F100F00DF10D1F
:1001A40070107008303E84000008F000840A0008D3
:0401B400F10008004E
:1001B800831203137408003A031DEB287508003AEC
:1001C800031DEB28FF30F0007F30F1000800831298
:1001D8000313FD01F901F8017108700403190034D3
:1001E80071087506FA00FA1BFD09FB01F51F0129C4
:1001F800F409F509F40A0319F50AF11F0829F009A9
:10020800F109F00A0319F10A71087504FA00FA1BDA
:100218001D2903207B183029FD1F0034F009F1093E
:10022800F00A0319F10AF809F909F80A0319F90A91
:100238000034F51F2C29F11B28297108F9007008D2
:10024800F800F101F0011029F101F001F00A003481
:10025800F109F009FB0A0D29F80A0319F90A7408CB
:100268007802031D102975087902031D1029F90168
:10027800F801F00A0319F10AF11F10290000FF34F0
:0202880008006C
:10028A0083120313A001A101073083169C00C0301A
:10029A008800870183128810081188118713362075
:1002AA00E830F4000330F5002008F0002108F100DE
:1002BA00DC207008AC007108AD00E830F4000330AF
:1002CA00F5002008F0002108F100DC207808F00091
:1002DA007908F100E830F4000330F500DC207008FA
:1002EA002C02F0007108031C013E2D02F100700877
:1002FA00AA007108AB007008AE007108AF00A22016
:10030A007008870008140D30FC00FB30FD00FD0B5F
:10031A008C29FC0B8C29000000000810E830F4003E
:10032A000330F5002008F0002108F100DC207808ED
:10033A00F0007908F1007008A4007108A500643083
:10034A00F4000030F500DC207008AC007108AD0044
:10035A006430F4000030F5002408F0002508F100AC
:10036A00DC207808F0007908F1006430F4000030ED
:10037A00F500DC2070082C02F0007108031C013E15
:10038A002D02F1007008A4007108A5007008AE00E3
:10039A007108AF00A2207008870088140D30FC0095
:1003AA00FB30FD00FD0BD729FC0BD729000000000C
:1003BA0088106430F4000030F5002008F0002108AD
:1003CA00F100DC207808F0007908F1007008A60036
:1003DA007108A7000A30F4000030F500DC20780824
:1003EA00F0007908F1007008AC007108AD000A301D
:1003FA00F4000030F5002608F0002708F100DC20A0
:10040A007808F0007908F1000A30F4000030F500AD
:10041A00DC2070082C02F0007108031C013E2D023A
:10042A00F1007008A6007108A7007008AE007108F4
:10043A00AF00A2207008870008150D30FC00FB30C1
:10044A00FD00FD0B262AFC0B262A000000000811DD
:10045A000A30F4000030F5002008F0002108F1000D
:10046A00DC207808F0007908F1007008A80071080B
:10047A00A9007008AE007108AF00A22070088700BA
:10048A0088150D30FC00FB30FD00FD0B4A2AFC0BE1
:0C049A004A2A0000000088115429522A50
:02400E00492F38
:00000001FF
